:10010B0000010002000400080010002000400080E5
:10011B0001000200040008001000200040008000D5
:10012B0000000000000000000000000000000000C4
:10013B0000000000000000000000000000000000B4
:10014B0040008008FE1F10022001FF3F40004000CE
:10015B00FE1F40004806440852102000000000001B
:10016B00000EFC0148089004FE3F02102108FC1F02
:10017B002000E0075002880144023A1C00000000F6
:10018B000802080204113E3FA210621022113E1217
:10019B0022122210221022103E0A2204000000001C
:1001AB00000000003CF0669C438200000000000051
:1001BB000000000030186008C007000000000000BD
:1001CB000000000000000000000000000000000024
:1001DB000000000000000000000000000000000014
:1000030001446C0123771246FF012BFF014BFF01D3
:0A0013006BFF018BFF01ABFF01CB77
:1002FD00E4FEEFC4131313540124FF92B4EF25E071
:10030D00FFC2B6D2B60EBE08E9E4FEEDC413131358
:10031D00540124FF92B4ED25E0FDC2B6D2B60EBE57
:10032D0008E9E4FEEBC4131313540124FF92B4EB5C
:10033D0025E0FBC2B6D2B60EBE08E9E4FEE513C455
:10034D00131313540124FF92B4E51325E0F513C2E2
:0D035D00B6D2B60EBE08E6C2B5D2B5C2B526
:01036A002270
:10047F00759850758920758780758DFF758BFFD2A4
:06048F00ACD2AFD28E22B8
:06043B008B108A118912EA
:10044100E4FFAB10AA11A9128F8275830012027703
:0B045100F5993099FDC2990FBF20E71C
:01045C00227D
:080026008B088A09890A8D0B81
:10002E00750F14E4F50EE50E25E0240BF582E4348D
:10003E0001F583E493FCE50E25E0240CF582E4340F
:10004E0001F583E493F5137E00E50D250EFFEE35E5
:10005E000CFEEF25E0FFEE33FEAB08AA09A90A124B
:10006E0002B6E92FF9EA3EFA900001120277F4FF88
:10007E00C0077E00E50D250EFFEE350CFEEF25E0E8
:10008E00FFEE33FEAB08AA09A90A1202B68F828EC2
:10009E0083120277F4FDAB04D0071202FD050EE5C4
:1000AE000EC394104080E4F513FB7DFF7FFF120218
:1000BE00FD150FE50FD394004003020031AB08AAE3
:1000CE0009A90A1202B6E50D25E0FFE50C33FEE99B
:1000DE002FF9EA3EFA12043B050DE50D7002050CF0
:1000EE00E50B2401FFE433FE7C007D0F1202A4EF2A
:0C00FE00B50D09EEB50C05E4F50CF50D90
:01010A0022D2
:06036B008B088A09890AD3
:10037100E4F50BE50B75F002A4AB08250AF9E509D4
:1003810035F0FA900001120277F4FFAA09A90A7563
:10039100F002E50BA4F58285F083120277F4FDE506
:1003A1000B25E0240BF582E43401F583E493FBE5AE
:1003B1000B25E0240CF582E43401F583E493F51375
:1003C1001202FD050BE50BC3941040A7E4F513FBE6
:0703D1007DFF7FFF0202FD2A
:10040B00AE21052174582EF8A607E5216420701F34
:10041B00852322FF74582FF8E6FE74242FF8A606C6
:0F042B0074582FF8E4F60FBF20EAD200E4F52151
:01043A00229F
:0300230002045D77
:0D045D00C0E0C0D075D000C000C006C007D0
:0A046A00309807AF9912040BC298F6
:0B047400D007D006D000D0D0D0E0327E
:0E049500E4F521854422754504C20002047F6F
:1003D800120495E522B5440D7B007A007946AD45B7
:1003E80012002680EEE522B523E97B007A00792405
:1003F80012036B3000DD7B007A00792412043BC2C3
:030408000080D0A1
:030000000201EB0F
:0C01EB00787FE4F6D8FD758177020232BF
:10027700BB010CE58229F582E5833AF583E022503C
:1002870006E92582F8E622BBFE06E92582F8E22286
:0D029700E58229F582E5833AF583E49322A0
:1002A400EF8DF0A4A8F0CF8CF0A428CE8DF0A42E6E
:0202B400FE2228
:1002B600BB010789828A830202DF5005E9F8020240
:1002C600D6BBFE05E9F80202E889828A830202F1BA
:1001F7000203D8E493A3F8E493A34003F68001F243
:1002070008DFF48029E493A3F85407240CC8C33308
:10021700C4540F4420C8834004F456800146F6DFD7
:10022700E4800B0102040810204080900003E47E64
:10023700019360BCA3FF543F30E509541FFEE493CC
:10024700A360010ECF54C025E060A840B8E493A393
:10025700FAE493A3F8E493A3C8C582C8CAC583CABE
:10026700F0A3C8C582C8CAC583CADFE9DEE780BE76
:01001D0000E2
:0902D600E6FB08E6FA08E6F9224D
:0902DF00E0FBA3E0FAA3E0F92220
:0902E800E2FB08E2FA08E2F92247
:0C02F100E493FB740193FA740293F92269
:00000001FF
