:1000260000010002000400080010002000400080CB
:1000360001000200040008001000200040008000BB
:1000460000000000000000000000000000000000AA
:10005600000000000000000000000000000000009A
:1000660040008008FE1F10022001FF3F40004000B4
:10007600FE1F400048064408521020000000000001
:10008600000EFC0148089004FE3F02102108FC1FE8
:100096002000E0075002880144023A1C00000000DC
:1000A6000802080204113E3FA210621022113E12FD
:1000B60022122210221022103E0A22040000000002
:1000C600000000003CF0669C438200000000000037
:1000D6000000000030186008C007000000000000A3
:1000E600000000000000000000000000000000000A
:1000F60000000000000000000000000000000000FA
:10000300012B6C010A77122DFF0046FF0066FF00EB
:0A00130086FF00A6FF00C6FF00E60E
:1002E200E4FEEFC4131313540124FF92B4EF25E08C
:1002F200FFC2B6D2B60EBE08E9E4FEEDC413131374
:10030200540124FF92B4ED25E0FDC2B6D2B60EBE72
:1003120008E9E4FEEBC4131313540124FF92B4EB77
:1003220025E0FBC2B6D2B60EBE08E9E4FEE56DC416
:10033200131313540124FF92B4E56D25E0F56DC249
:0D034200B6D2B60EBE08E6C2B5D2B5C2B541
:01034F00228B
:10047A00759850758920758780758DF3758BF3D2C1
:06048A00ACD2AFD28E22BD
:080106008B628A6389648D6538
:10010E00756914E4F568E56825E02426F582E43483
:10011E0000F583E493FCE56825E02427F582E434BA
:10012E0000F583E493F56D7E00E5672568FFEE35F7
:10013E0066FEEF25E0FFEE33FEAB62AA63A9641202
:10014E00029BE92FF9EA3EFA90000112025CF4FFDD
:10015E00C0077E00E5672568FFEE3566FEEF25E0F9
:10016E00FFEE33FEAB62AA63A96412029B8F828EEE
:10017E008312025CF4FDAB04D0071202E20568E5BF
:10018E0068C394104080E4F56DFB7DFF7FFF120283
:10019E00E21569E569D3940040030201110567E594
:1001AE006770020566E5652401FFE433FE7C007D81
:1001BE000F120289EFB56709EEB56605E4F566F52F
:0101CE0067C9
:0101CF00220D
:060350008B628A638964E0
:10035600E4F565E56575F002A4AB622564F9E5632D
:1003660035F0FA90000112025CF4FFAA63A96475E5
:10037600F002E565A4F58285F08312025CF4FDE5E2
:100386006525E02426F582E43400F583E493FBE555
:100396006525E02427F582E43400F583E493F56DC2
:0C03A6001202E20565E565C3941040A753
:0103B2002228
:060458008B5F8A608961E0
:10045E00E4FFAB5FAA60A9618F8275830012025C14
:0B046E00F5993099FDC2990FBF20E7FF
:010479002260
:1003B300AE080508743F2EF8A607E50864207039D7
:1003C300850A09FF743F2FF8E6FE740B2FF8A60683
:1003D300743F2FF8E4F60FBF20EA7B007A00790B15
:1003E300120458E4FF740B2FF8E6F46002800785CB
:0903F3002B090FBF20EFE4F5080F
:0103FC0022DE
:030023000203FDD8
:1003FD00C0E0C083C082C0D075D000C000C001C0B5
:07040D0002C003C006C00796
:0A041400309807AF991203B3C298A5
:10041E00D007D006D003D002D001D000D0D0D082E9
:05042E00D083D0E03294
:0C049000E4F508852B09752C0402047AA1
:10043300120490E509B52B0D7B007A00792DAD2CC4
:1004430012010680EEE509B50AE97B007A00790B13
:0504530012035080DEE1
:030000000201D02A
:0C01D000787FE4F6D8FD75816D020217FF
:10025C00BB010CE58229F582E5833AF583E0225057
:10026C0006E92582F8E622BBFE06E92582F8E222A1
:0D027C00E58229F582E5833AF583E49322BB
:10028900EF8DF0A4A8F0CF8CF0A428CE8DF0A42E89
:02029900FE2243
:10029B00BB010789828A830202C45005E9F8020276
:1002AB00BBBBFE05E9F80202CD89828A830202D626
:1001DC00020433E493A3F8E493A34003F68001F202
:1001EC0008DFF48029E493A3F85407240CC8C33324
:1001FC00C4540F4420C8834004F456800146F6DFF3
:10020C00E4800B0102040810204080900003E47E7F
:10021C00019360BCA3FF543F30E509541FFEE493E7
:10022C00A360010ECF54C025E060A840B8E493A3AE
:10023C00FAE493A3F8E493A3C8C582C8CAC583CAD9
:10024C00F0A3C8C582C8CAC583CADFE9DEE780BE91
:01001D0000E2
:0902BB00E6FB08E6FA08E6F92268
:0902C400E0FBA3E0FAA3E0F9223B
:0902CD00E2FB08E2FA08E2F92262
:0C02D600E493FB740193FA740293F92284
:00000001FF
