:1000260000010002000400080010002000400080CB
:1000360001000200040008001000200040008000BB
:1000460000000000000000000000000000000000AA
:10005600000000000000000000000000000000009A
:1000660040008008FE1F10022001FF3F40004000B4
:10007600FE1F400048064408521020000000000001
:10008600000EFC0148089004FE3F02102108FC1FE8
:100096002000E0075002880144023A1C00000000DC
:1000A6000802080204113E3FA210621022113E12FD
:1000B60022122210221022103E0A22040000000002
:1000C600000000003CF0669C438200000000000037
:1000D6000000000030186008C007000000000000A3
:1000E600000000000000000000000000000000000A
:1000F60000000000000000000000000000000000FA
:10000300012B6C010A77122CFF0046FF0066FF00EC
:0A00130086FF00A6FF00C6FF00E60E
:1002BC00E4FEEFC4131313540124FF92B4EF25E0B2
:1002CC00FFC2B6D2B60EBE08E9E4FEEDC41313139A
:1002DC00540124FF92B4ED25E0FDC2B6D2B60EBE99
:1002EC0008E9E4FEEBC4131313540124FF92B4EB9E
:1002FC0025E0FBC2B6D2B60EBE08E9E4FEE56BC43F
:10030C00131313540124FF92B4E56B25E0F56BC273
:0D031C00B6D2B60EBE08E6C2B5D2B5C2B567
:0103290022B1
:10043300759850758920758780758DF3758BF3D208
:06044300ACD2AFD28E2204
:060106008B618A6289632F
:10010C00756714E4F566E56625E02426F582E4348B
:10011C0000F583E493FCE56625E02427F582E434BE
:10012C0000F583E493F56B7E00E5652566FFEE35FF
:10013C0064FEEF25E0FFEE33FEAB61AA62A9631209
:10014C000275E92FF9EA3EFA900001120248F4FF19
:10015C00C0077E00E5652566FFEE3564FEEF25E001
:10016C00FFEE33FEAB61AA62A9631202758F828E19
:10017C0083120248F4FDAB04D0071202BC0566E5FD
:10018C0066C394104080E4F56BFB7DFF7FFF120289
:10019C00BC1567E567D39400400302010F0565E5C4
:0F01AC006570020564644B45647004F564F56585
:0101BB002221
:06032A008B618A62896309
:10033000E4F564E56475F002A4AB612563F9E56258
:1003400035F0FA900001120248F4FFAA62A9637521
:10035000F002E564A4F58285F083120248F4FDE51D
:100360006425E02426F582E43400F583E493FBE57C
:100370006425E02427F582E43400F583E493F56BEB
:0C0380001202BC0564E564C3941040A7A1
:01038C00224E
:060411008B5E8A5F89602A
:10041700E4FFAB5EAA5FA9608F8275830012024872
:0B042700F5993099FDC2990FBF20E746
:0104320022A7
:0300230002038D48
:10038D00C0E0C083C082C0D075D000C000C001C025
:07039D0002C003C006C00707
:1003A400309832AF080508743E2FF8A699E5086422
:1003B400207020FF743E2FF8E6FE740B2FF8A6067B
:1003C4000FBF20F0850A097B007A00790B12041113
:0503D400750800C2984D
:1003D900D007D006D003D002D001D000D0D0D0822F
:0503E900D083D0E032DA
:09044900E4F508852B09020433D7
:1003EE00120449E509B52B0B7B007A00792C12011A
:1003FE000680F0E509B50AEB7B007A00790B120353
:03040E002A80E061
:030000000201BC3E
:0C01BC00787FE4F6D8FD75816B02020329
:10024800BB010CE58229F582E5833AF583E022506B
:1002580006E92582F8E622BBFE06E92582F8E222B5
:0D026800E58229F582E5833AF583E49322CF
:10027500BB010789828A8302029E5005E9F80202C2
:1002850095BBFE05E9F80202A789828A830202B0BE
:1001C8000203EEE493A3F8E493A34003F68001F25C
:1001D80008DFF48029E493A3F85407240CC8C33338
:1001E800C4540F4420C8834004F456800146F6DF07
:1001F800E4800B0102040810204080900003E47E94
:10020800019360BCA3FF543F30E509541FFEE493FB
:10021800A360010ECF54C025E060A840B8E493A3C2
:10022800FAE493A3F8E493A3C8C582C8CAC583CAED
:10023800F0A3C8C582C8CAC583CADFE9DEE780BEA5
:01001D0000E2
:09029500E6FB08E6FA08E6F9228E
:09029E00E0FBA3E0FAA3E0F92261
:0902A700E2FB08E2FA08E2F92288
:0C02B000E493FB740193FA740293F922AA
:00000001FF
